{
  "_format": "hh-sol-artifact-1",
  "contractName": "MetaTransactionReceiver",
  "sourceName": "contracts/RelayerService.sol",
  "abi": [
    {
      "inputs": [
        {
          "internalType": "address",
          "name": "",
          "type": "address"
        },
        {
          "internalType": "address",
          "name": "",
          "type": "address"
        }
      ],
      "name": "allowances",
      "outputs": [
        {
          "internalType": "uint256",
          "name": "",
          "type": "uint256"
        }
      ],
      "stateMutability": "view",
      "type": "function"
    },
    {
      "inputs": [
        {
          "internalType": "address",
          "name": "spender",
          "type": "address"
        },
        {
          "internalType": "uint256",
          "name": "amount",
          "type": "uint256"
        }
      ],
      "name": "approve",
      "outputs": [
        {
          "internalType": "bool",
          "name": "",
          "type": "bool"
        }
      ],
      "stateMutability": "nonpayable",
      "type": "function"
    },
    {
      "inputs": [
        {
          "internalType": "address",
          "name": "",
          "type": "address"
        }
      ],
      "name": "balances",
      "outputs": [
        {
          "internalType": "uint256",
          "name": "",
          "type": "uint256"
        }
      ],
      "stateMutability": "view",
      "type": "function"
    },
    {
      "inputs": [
        {
          "internalType": "address",
          "name": "user",
          "type": "address"
        },
        {
          "internalType": "uint256",
          "name": "amount",
          "type": "uint256"
        }
      ],
      "name": "processUserTransaction",
      "outputs": [],
      "stateMutability": "nonpayable",
      "type": "function"
    },
    {
      "inputs": [
        {
          "internalType": "address",
          "name": "recipient",
          "type": "address"
        },
        {
          "internalType": "uint256",
          "name": "amount",
          "type": "uint256"
        }
      ],
      "name": "transfer",
      "outputs": [
        {
          "internalType": "bool",
          "name": "",
          "type": "bool"
        }
      ],
      "stateMutability": "nonpayable",
      "type": "function"
    },
    {
      "inputs": [
        {
          "internalType": "address",
          "name": "sender",
          "type": "address"
        },
        {
          "internalType": "address",
          "name": "recipient",
          "type": "address"
        },
        {
          "internalType": "uint256",
          "name": "amount",
          "type": "uint256"
        }
      ],
      "name": "transferFrom",
      "outputs": [
        {
          "internalType": "bool",
          "name": "",
          "type": "bool"
        }
      ],
      "stateMutability": "nonpayable",
      "type": "function"
    }
  ],
  "bytecode": "0x608060405234801561001057600080fd5b506109fb806100206000396000f3fe608060405234801561001057600080fd5b50600436106100625760003560e01c8063095ea7b31461006757806323b872dd1461009757806327e235e3146100c757806355b6ed5c146100f7578063a9059cbb14610127578063e68dd6ad14610157575b600080fd5b610081600480360381019061007c9190610735565b610173565b60405161008e919061080f565b60405180910390f35b6100b160048036038101906100ac91906106e6565b610200565b6040516100be919061080f565b60405180910390f35b6100e160048036038101906100dc9190610681565b61048a565b6040516100ee919061086a565b60405180910390f35b610111600480360381019061010c91906106aa565b6104a2565b60405161011e919061086a565b60405180910390f35b610141600480360381019061013c9190610735565b6104c7565b60405161014e919061080f565b60405180910390f35b610171600480360381019061016c9190610735565b6105fe565b005b600081600160003373ffffffffffffffffffffffffffffffffffffffff1673ffffffffffffffffffffffffffffffffffffffff16815260200190815260200160002060008573ffffffffffffffffffffffffffffffffffffffff1673ffffffffffffffffffffffffffffffffffffffff168152602001908152602001600020819055506001905092915050565b6000816000808673ffffffffffffffffffffffffffffffffffffffff1673ffffffffffffffffffffffffffffffffffffffff168152602001908152602001600020541015610283576040517f08c379a000000000000000000000000000000000000000000000000000000000815260040161027a9061084a565b60405180910390fd5b81600160008673ffffffffffffffffffffffffffffffffffffffff1673ffffffffffffffffffffffffffffffffffffffff16815260200190815260200160002060003373ffffffffffffffffffffffffffffffffffffffff1673ffffffffffffffffffffffffffffffffffffffff168152602001908152602001600020541015610342576040517f08c379a00000000000000000000000000000000000000000000000000000000081526004016103399061082a565b60405180910390fd5b816000808673ffffffffffffffffffffffffffffffffffffffff1673ffffffffffffffffffffffffffffffffffffffff168152602001908152602001600020600082825461039091906108ec565b92505081905550816000808573ffffffffffffffffffffffffffffffffffffffff1673ffffffffffffffffffffffffffffffffffffffff16815260200190815260200160002060008282546103e59190610896565b9250508190555081600160008673ffffffffffffffffffffffffffffffffffffffff1673ffffffffffffffffffffffffffffffffffffffff16815260200190815260200160002060003373ffffffffffffffffffffffffffffffffffffffff1673ffffffffffffffffffffffffffffffffffffffff168152602001908152602001600020600082825461047891906108ec565b92505081905550600190509392505050565b60006020528060005260406000206000915090505481565b6001602052816000526040600020602052806000526040600020600091509150505481565b6000816000803373ffffffffffffffffffffffffffffffffffffffff1673ffffffffffffffffffffffffffffffffffffffff16815260200190815260200160002054101561054a576040517f08c379a00000000000000000000000000000000000000000000000000000000081526004016105419061084a565b60405180910390fd5b816000803373ffffffffffffffffffffffffffffffffffffffff1673ffffffffffffffffffffffffffffffffffffffff168152602001908152602001600020600082825461059891906108ec565b92505081905550816000808573ffffffffffffffffffffffffffffffffffffffff1673ffffffffffffffffffffffffffffffffffffffff16815260200190815260200160002060008282546105ed9190610896565b925050819055506001905092915050565b806000808473ffffffffffffffffffffffffffffffffffffffff1673ffffffffffffffffffffffffffffffffffffffff168152602001908152602001600020600082825461064c9190610896565b925050819055505050565b60008135905061066681610997565b92915050565b60008135905061067b816109ae565b92915050565b60006020828403121561069357600080fd5b60006106a184828501610657565b91505092915050565b600080604083850312156106bd57600080fd5b60006106cb85828601610657565b92505060206106dc85828601610657565b9150509250929050565b6000806000606084860312156106fb57600080fd5b600061070986828701610657565b935050602061071a86828701610657565b925050604061072b8682870161066c565b9150509250925092565b6000806040838503121561074857600080fd5b600061075685828601610657565b92505060206107678582860161066c565b9150509250929050565b61077a81610932565b82525050565b600061078d601683610885565b91507f496e73756666696369656e7420616c6c6f77616e6365000000000000000000006000830152602082019050919050565b60006107cd601483610885565b91507f496e73756666696369656e742062616c616e63650000000000000000000000006000830152602082019050919050565b6108098161095e565b82525050565b60006020820190506108246000830184610771565b92915050565b6000602082019050818103600083015261084381610780565b9050919050565b60006020820190508181036000830152610863816107c0565b9050919050565b600060208201905061087f6000830184610800565b92915050565b600082825260208201905092915050565b60006108a18261095e565b91506108ac8361095e565b9250827fffffffffffffffffffffffffffffffffffffffffffffffffffffffffffffffff038211156108e1576108e0610968565b5b828201905092915050565b60006108f78261095e565b91506109028361095e565b92508282101561091557610914610968565b5b828203905092915050565b600061092b8261093e565b9050919050565b60008115159050919050565b600073ffffffffffffffffffffffffffffffffffffffff82169050919050565b6000819050919050565b7f4e487b7100000000000000000000000000000000000000000000000000000000600052601160045260246000fd5b6109a081610920565b81146109ab57600080fd5b50565b6109b78161095e565b81146109c257600080fd5b5056fea264697066735822122080b6a1aec8570105052f598e30a3f7962540b6d235f9ceaf6eba34f15342ceae64736f6c63430008000033",
  "linkReferences": {},
  "deployedLinkReferences": {}
}