{
  "_format": "hh-sol-artifact-1",
  "contractName": "RelayerService",
  "sourceName": "contracts/RelayerService.sol",
  "abi": [
    {
      "inputs": [],
      "name": "lastBatchSentTime",
      "outputs": [
        {
          "internalType": "uint256",
          "name": "",
          "type": "uint256"
        }
      ],
      "stateMutability": "view",
      "type": "function"
    },
    {
      "inputs": [],
      "name": "sendBatch",
      "outputs": [],
      "stateMutability": "nonpayable",
      "type": "function"
    },
    {
      "inputs": [
        {
          "internalType": "address",
          "name": "targetContract",
          "type": "address"
        },
        {
          "internalType": "bytes",
          "name": "data",
          "type": "bytes"
        }
      ],
      "name": "submitUserTransaction",
      "outputs": [],
      "stateMutability": "nonpayable",
      "type": "function"
    },
    {
      "inputs": [
        {
          "internalType": "uint256",
          "name": "",
          "type": "uint256"
        }
      ],
      "name": "userTransactions",
      "outputs": [
        {
          "internalType": "address",
          "name": "user",
          "type": "address"
        },
        {
          "internalType": "address",
          "name": "targetContract",
          "type": "address"
        },
        {
          "internalType": "bytes",
          "name": "data",
          "type": "bytes"
        }
      ],
      "stateMutability": "view",
      "type": "function"
    }
  ],
  "bytecode": "0x608060405234801561001057600080fd5b506110bb806100206000396000f3fe608060405234801561001057600080fd5b506004361061004c5760003560e01c80636cedf9c114610051578063a093961b1461006f578063e48e3aeb14610079578063e7f7305c14610095575b600080fd5b6100596100c7565b6040516100669190610d82565b60405180910390f35b6100776100cd565b005b610093600480360381019061008e9190610b42565b610715565b005b6100af60048036038101906100aa9190610b96565b61083e565b6040516100be93929190610d04565b60405180910390f35b60015481565b600a6001546100dc9190610e36565b42101561011e576040517f08c379a000000000000000000000000000000000000000000000000000000000815260040161011590610d42565b60405180910390fd5b6000805a905060005b600080549050811080156101485750620f424082846101469190610e36565b105b156103c7576000808281548110610188577f4e487b7100000000000000000000000000000000000000000000000000000000600052603260045260246000fd5b90600052602060002090600302016040518060600160405290816000820160009054906101000a900473ffffffffffffffffffffffffffffffffffffffff1673ffffffffffffffffffffffffffffffffffffffff1673ffffffffffffffffffffffffffffffffffffffff1681526020016001820160009054906101000a900473ffffffffffffffffffffffffffffffffffffffff1673ffffffffffffffffffffffffffffffffffffffff1673ffffffffffffffffffffffffffffffffffffffff16815260200160028201805461025d90610f3e565b80601f016020809104026020016040519081016040528092919081815260200182805461028990610f3e565b80156102d65780601f106102ab576101008083540402835291602001916102d6565b820191906000526020600020905b8154815290600101906020018083116102b957829003601f168201915b50505050508152505090506000816020015173ffffffffffffffffffffffffffffffffffffffff1682604001516040516103109190610ced565b6000604051808303816000865af19150503d806000811461034d576040519150601f19603f3d011682016040523d82523d6000602084013e610352565b606091505b5050905080610396576040517f08c379a000000000000000000000000000000000000000000000000000000000815260040161038d90610d62565b60405180910390fd5b5a846103a29190610e8c565b856103ad9190610e36565b94505a935082806103bd90610f70565b9350505050610127565b60008111156107095760005b818110156104975760008181548110610415577f4e487b7100000000000000000000000000000000000000000000000000000000600052603260045260246000fd5b9060005260206000209060030201600080820160006101000a81549073ffffffffffffffffffffffffffffffffffffffff02191690556001820160006101000a81549073ffffffffffffffffffffffffffffffffffffffff02191690556002820160006104829190610940565b5050808061048f90610f70565b9150506103d3565b506000816000805490506104ab9190610e8c565b905060005b8181101561065757600083826104c69190610e36565b815481106104fd577f4e487b7100000000000000000000000000000000000000000000000000000000600052603260045260246000fd5b906000526020600020906003020160008281548110610545577f4e487b7100000000000000000000000000000000000000000000000000000000600052603260045260246000fd5b90600052602060002090600302016000820160009054906101000a900473ffffffffffffffffffffffffffffffffffffffff168160000160006101000a81548173ffffffffffffffffffffffffffffffffffffffff021916908373ffffffffffffffffffffffffffffffffffffffff1602179055506001820160009054906101000a900473ffffffffffffffffffffffffffffffffffffffff168160010160006101000a81548173ffffffffffffffffffffffffffffffffffffffff021916908373ffffffffffffffffffffffffffffffffffffffff160217905550600282018160020190805461063590610f3e565b610640929190610980565b50905050808061064f90610f70565b9150506104b0565b506000805480610690577f4e487b7100000000000000000000000000000000000000000000000000000000600052603160045260246000fd5b6001900381819060005260206000209060030201600080820160006101000a81549073ffffffffffffffffffffffffffffffffffffffff02191690556001820160006101000a81549073ffffffffffffffffffffffffffffffffffffffff02191690556002820160006107039190610940565b50509055505b42600181905550505050565b600060405180606001604052803373ffffffffffffffffffffffffffffffffffffffff1681526020018473ffffffffffffffffffffffffffffffffffffffff168152602001838152509050600081908060018154018082558091505060019003906000526020600020906003020160009091909190915060008201518160000160006101000a81548173ffffffffffffffffffffffffffffffffffffffff021916908373ffffffffffffffffffffffffffffffffffffffff16021790555060208201518160010160006101000a81548173ffffffffffffffffffffffffffffffffffffffff021916908373ffffffffffffffffffffffffffffffffffffffff1602179055506040820151816002019080519060200190610836929190610a0d565b505050505050565b6000818154811061084e57600080fd5b90600052602060002090600302016000915090508060000160009054906101000a900473ffffffffffffffffffffffffffffffffffffffff16908060010160009054906101000a900473ffffffffffffffffffffffffffffffffffffffff16908060020180546108bd90610f3e565b80601f01602080910402602001604051908101604052809291908181526020018280546108e990610f3e565b80156109365780601f1061090b57610100808354040283529160200191610936565b820191906000526020600020905b81548152906001019060200180831161091957829003601f168201915b5050505050905083565b50805461094c90610f3e565b6000825580601f1061095e575061097d565b601f01602090049060005260206000209081019061097c9190610a93565b5b50565b82805461098c90610f3e565b90600052602060002090601f0160209004810192826109ae57600085556109fc565b82601f106109bf57805485556109fc565b828001600101855582156109fc57600052602060002091601f016020900482015b828111156109fb5782548255916001019190600101906109e0565b5b509050610a099190610a93565b5090565b828054610a1990610f3e565b90600052602060002090601f016020900481019282610a3b5760008555610a82565b82601f10610a5457805160ff1916838001178555610a82565b82800160010185558215610a82579182015b82811115610a81578251825591602001919060010190610a66565b5b509050610a8f9190610a93565b5090565b5b80821115610aac576000816000905550600101610a94565b5090565b6000610ac3610abe84610dce565b610d9d565b905082815260208101848484011115610adb57600080fd5b610ae6848285610efc565b509392505050565b600081359050610afd81611057565b92915050565b600082601f830112610b1457600080fd5b8135610b24848260208601610ab0565b91505092915050565b600081359050610b3c8161106e565b92915050565b60008060408385031215610b5557600080fd5b6000610b6385828601610aee565b925050602083013567ffffffffffffffff811115610b8057600080fd5b610b8c85828601610b03565b9150509250929050565b600060208284031215610ba857600080fd5b6000610bb684828501610b2d565b91505092915050565b610bc881610ec0565b82525050565b6000610bd982610dfe565b610be38185610e09565b9350610bf3818560208601610f0b565b610bfc81611046565b840191505092915050565b6000610c1282610dfe565b610c1c8185610e1a565b9350610c2c818560208601610f0b565b80840191505092915050565b6000610c45601f83610e25565b91507f42617463682073656e6420696e74657276616c206e6f742072656163686564006000830152602082019050919050565b6000610c85602183610e25565b91507f55736572207472616e73616374696f6e20657865637574696f6e206661696c6560008301527f64000000000000000000000000000000000000000000000000000000000000006020830152604082019050919050565b610ce781610ef2565b82525050565b6000610cf98284610c07565b915081905092915050565b6000606082019050610d196000830186610bbf565b610d266020830185610bbf565b8181036040830152610d388184610bce565b9050949350505050565b60006020820190508181036000830152610d5b81610c38565b9050919050565b60006020820190508181036000830152610d7b81610c78565b9050919050565b6000602082019050610d976000830184610cde565b92915050565b6000604051905081810181811067ffffffffffffffff82111715610dc457610dc3611017565b5b8060405250919050565b600067ffffffffffffffff821115610de957610de8611017565b5b601f19601f8301169050602081019050919050565b600081519050919050565b600082825260208201905092915050565b600081905092915050565b600082825260208201905092915050565b6000610e4182610ef2565b9150610e4c83610ef2565b9250827fffffffffffffffffffffffffffffffffffffffffffffffffffffffffffffffff03821115610e8157610e80610fb9565b5b828201905092915050565b6000610e9782610ef2565b9150610ea283610ef2565b925082821015610eb557610eb4610fb9565b5b828203905092915050565b6000610ecb82610ed2565b9050919050565b600073ffffffffffffffffffffffffffffffffffffffff82169050919050565b6000819050919050565b82818337600083830152505050565b60005b83811015610f29578082015181840152602081019050610f0e565b83811115610f38576000848401525b50505050565b60006002820490506001821680610f5657607f821691505b60208210811415610f6a57610f69610fe8565b5b50919050565b6000610f7b82610ef2565b91507fffffffffffffffffffffffffffffffffffffffffffffffffffffffffffffffff821415610fae57610fad610fb9565b5b600182019050919050565b7f4e487b7100000000000000000000000000000000000000000000000000000000600052601160045260246000fd5b7f4e487b7100000000000000000000000000000000000000000000000000000000600052602260045260246000fd5b7f4e487b7100000000000000000000000000000000000000000000000000000000600052604160045260246000fd5b6000601f19601f8301169050919050565b61106081610ec0565b811461106b57600080fd5b50565b61107781610ef2565b811461108257600080fd5b5056fea2646970667358221220c8f096a17e4ad50d310adf88218032c7b89291370ad631fc6bed0e4723e3f02d64736f6c63430008000033",
  "linkReferences": {},
  "deployedLinkReferences": {}
}