{
  "_format": "hh-sol-artifact-1",
  "contractName": "TargetSmartContract",
  "sourceName": "contracts/RelayerService.sol",
  "abi": [
    {
      "inputs": [
        {
          "internalType": "address",
          "name": "",
          "type": "address"
        },
        {
          "internalType": "address",
          "name": "",
          "type": "address"
        }
      ],
      "name": "allowances",
      "outputs": [
        {
          "internalType": "uint256",
          "name": "",
          "type": "uint256"
        }
      ],
      "stateMutability": "view",
      "type": "function"
    },
    {
      "inputs": [
        {
          "internalType": "address",
          "name": "spender",
          "type": "address"
        },
        {
          "internalType": "uint256",
          "name": "amount",
          "type": "uint256"
        }
      ],
      "name": "approve",
      "outputs": [
        {
          "internalType": "bool",
          "name": "",
          "type": "bool"
        }
      ],
      "stateMutability": "nonpayable",
      "type": "function"
    },
    {
      "inputs": [
        {
          "internalType": "address",
          "name": "",
          "type": "address"
        }
      ],
      "name": "balances",
      "outputs": [
        {
          "internalType": "uint256",
          "name": "",
          "type": "uint256"
        }
      ],
      "stateMutability": "view",
      "type": "function"
    },
    {
      "inputs": [
        {
          "internalType": "address",
          "name": "recipient",
          "type": "address"
        },
        {
          "internalType": "uint256",
          "name": "amount",
          "type": "uint256"
        }
      ],
      "name": "transfer",
      "outputs": [
        {
          "internalType": "bool",
          "name": "",
          "type": "bool"
        }
      ],
      "stateMutability": "nonpayable",
      "type": "function"
    },
    {
      "inputs": [
        {
          "internalType": "address",
          "name": "sender",
          "type": "address"
        },
        {
          "internalType": "address",
          "name": "recipient",
          "type": "address"
        },
        {
          "internalType": "uint256",
          "name": "amount",
          "type": "uint256"
        }
      ],
      "name": "transferFrom",
      "outputs": [
        {
          "internalType": "bool",
          "name": "",
          "type": "bool"
        }
      ],
      "stateMutability": "nonpayable",
      "type": "function"
    }
  ],
  "bytecode": "0x608060405234801561001057600080fd5b5061097b806100206000396000f3fe608060405234801561001057600080fd5b50600436106100575760003560e01c8063095ea7b31461005c57806323b872dd1461008c57806327e235e3146100bc57806355b6ed5c146100ec578063a9059cbb1461011c575b600080fd5b610076600480360381019061007191906106b5565b61014c565b604051610083919061078f565b60405180910390f35b6100a660048036038101906100a19190610666565b6101d9565b6040516100b3919061078f565b60405180910390f35b6100d660048036038101906100d19190610601565b610463565b6040516100e391906107ea565b60405180910390f35b6101066004803603810190610101919061062a565b61047b565b60405161011391906107ea565b60405180910390f35b610136600480360381019061013191906106b5565b6104a0565b604051610143919061078f565b60405180910390f35b600081600160003373ffffffffffffffffffffffffffffffffffffffff1673ffffffffffffffffffffffffffffffffffffffff16815260200190815260200160002060008573ffffffffffffffffffffffffffffffffffffffff1673ffffffffffffffffffffffffffffffffffffffff168152602001908152602001600020819055506001905092915050565b6000816000808673ffffffffffffffffffffffffffffffffffffffff1673ffffffffffffffffffffffffffffffffffffffff16815260200190815260200160002054101561025c576040517f08c379a0000000000000000000000000000000000000000000000000000000008152600401610253906107ca565b60405180910390fd5b81600160008673ffffffffffffffffffffffffffffffffffffffff1673ffffffffffffffffffffffffffffffffffffffff16815260200190815260200160002060003373ffffffffffffffffffffffffffffffffffffffff1673ffffffffffffffffffffffffffffffffffffffff16815260200190815260200160002054101561031b576040517f08c379a0000000000000000000000000000000000000000000000000000000008152600401610312906107aa565b60405180910390fd5b816000808673ffffffffffffffffffffffffffffffffffffffff1673ffffffffffffffffffffffffffffffffffffffff1681526020019081526020016000206000828254610369919061086c565b92505081905550816000808573ffffffffffffffffffffffffffffffffffffffff1673ffffffffffffffffffffffffffffffffffffffff16815260200190815260200160002060008282546103be9190610816565b9250508190555081600160008673ffffffffffffffffffffffffffffffffffffffff1673ffffffffffffffffffffffffffffffffffffffff16815260200190815260200160002060003373ffffffffffffffffffffffffffffffffffffffff1673ffffffffffffffffffffffffffffffffffffffff1681526020019081526020016000206000828254610451919061086c565b92505081905550600190509392505050565b60006020528060005260406000206000915090505481565b6001602052816000526040600020602052806000526040600020600091509150505481565b6000816000803373ffffffffffffffffffffffffffffffffffffffff1673ffffffffffffffffffffffffffffffffffffffff168152602001908152602001600020541015610523576040517f08c379a000000000000000000000000000000000000000000000000000000000815260040161051a906107ca565b60405180910390fd5b816000803373ffffffffffffffffffffffffffffffffffffffff1673ffffffffffffffffffffffffffffffffffffffff1681526020019081526020016000206000828254610571919061086c565b92505081905550816000808573ffffffffffffffffffffffffffffffffffffffff1673ffffffffffffffffffffffffffffffffffffffff16815260200190815260200160002060008282546105c69190610816565b925050819055506001905092915050565b6000813590506105e681610917565b92915050565b6000813590506105fb8161092e565b92915050565b60006020828403121561061357600080fd5b6000610621848285016105d7565b91505092915050565b6000806040838503121561063d57600080fd5b600061064b858286016105d7565b925050602061065c858286016105d7565b9150509250929050565b60008060006060848603121561067b57600080fd5b6000610689868287016105d7565b935050602061069a868287016105d7565b92505060406106ab868287016105ec565b9150509250925092565b600080604083850312156106c857600080fd5b60006106d6858286016105d7565b92505060206106e7858286016105ec565b9150509250929050565b6106fa816108b2565b82525050565b600061070d601683610805565b91507f496e73756666696369656e7420616c6c6f77616e6365000000000000000000006000830152602082019050919050565b600061074d601483610805565b91507f496e73756666696369656e742062616c616e63650000000000000000000000006000830152602082019050919050565b610789816108de565b82525050565b60006020820190506107a460008301846106f1565b92915050565b600060208201905081810360008301526107c381610700565b9050919050565b600060208201905081810360008301526107e381610740565b9050919050565b60006020820190506107ff6000830184610780565b92915050565b600082825260208201905092915050565b6000610821826108de565b915061082c836108de565b9250827fffffffffffffffffffffffffffffffffffffffffffffffffffffffffffffffff03821115610861576108606108e8565b5b828201905092915050565b6000610877826108de565b9150610882836108de565b925082821015610895576108946108e8565b5b828203905092915050565b60006108ab826108be565b9050919050565b60008115159050919050565b600073ffffffffffffffffffffffffffffffffffffffff82169050919050565b6000819050919050565b7f4e487b7100000000000000000000000000000000000000000000000000000000600052601160045260246000fd5b610920816108a0565b811461092b57600080fd5b50565b610937816108de565b811461094257600080fd5b5056fea2646970667358221220f4588f035fa11f3d927ab407cb7320081e427c598f77825a138c690ef366fff864736f6c63430008000033",
  "linkReferences": {},
  "deployedLinkReferences": {}
}